:020000021000EC
:10000000000004204D8E0100858E01000172010068
:10001000898E01000D7201001372010000000000C2
:10002000000000000000000000000000952001001A
:10003000918E0100000000002F2101003F210100EE
:10004000A5C6010011450100978E0100978E0100A1
:10005000978E0100978E0100978E0100978E010008
:10006000978E0100978E0100978E0100978E0100F8
:10007000978E010039C80100978E010029450100C3
:10008000978E0100978E0100978E0100978E0100D8
:10009000978E0100978E0100978E0100978E0100C8
:1000A000978E0100978E0100978E0100978E0100B8
:1000B000978E0100978E01000000000000000000F4
:1000C000978E0100978E0100978E0100978E010098
:1000D000978E0100978E0100978E0100978E010088
:1000E000978E0100978E0100978E0100000000009E
:1000F00000000000978E010000000000978E0100B4
:1001000010B5054C237833B9044B13B10448AFF351
:1001100000800123237010BDE80F002000000000C4
:100120004C3F020008B5034B1BB103490348AFF332
:10013000008008BD00000000EC0F00204C3F0200D2
:10014000154B002B08BF134B9D46A3F5803A0021A9
:100150008B460F461348144A121A0EF0C1FC0F4B7F
:10016000002B00D098470E4B002B00D09847002062
:10017000002104000D000D48002802D00C4807F0B3
:10018000DBFD0DF0BDFF2000290004F003F807F0AF
:10019000D0FD00BF000008000000042000000000A7
:1001A000F1400100E80F002008B00020397D010077
:1001B000000000000149024801F028BE9020020022
:1001C000381100200149024800F00ABB74B7010051
:1001D0003811002030B5A1F11004002500F00F0205
:1001E000D3B2092ACCBF373330338B73CD73023986
:1001F0008C424FEA1010F1D130BD22207047000030
:1002000030B5012185B0192001F0D8FE0121192057
:1002100001F018FF4FF080430022C3F85C2503F57E
:1002200088334FF48032C3F848230121C3F80823F0
:10023000212001F0C3FE0121202001F0BFFE012199
:10024000212001F0FFFE0A2001F05EFE01212020A6
:1002500001F0F8FE212001F02BFE1F2886BF00F0E0
:100260001F00154B4FF0A04300F5E07040F2033241
:1002700043F82020114B01221A60114A1368002B09
:10028000FCD0104B0024C3F80045C3F800450E4BCA
:100290000FCB6D4685E80F00234620464FF0FF3117
:1002A00055F823200133042BC2F80005C2F860156D
:1002B000F6D105B030BD00BF00030050042000405F
:1002C00044210040002000409C20020038B54FF03F
:1002D000805504462146D5F8A800FFF77BFFD5F8E6
:1002E000A40004F11001FFF775FF202038BD0000C5
:1002F00072B64FF08043B022C3F81C25BFF34F8F76
:100300000549064BCA6802F4E0621343CB60BFF3B1
:100310004F8F00BFFDE700BF00ED00E00400FA05CD
:1003200070470B6803604B6843608B68836070475D
:10033000C3680BB19B681847704710B50446FFF7B8
:10034000F7FF204610BD0020704770B590F830319F
:1003500005461446F3B90368DB69984704F47063F3
:10036000B3F5407F04F0F0030CBF0721082104F02F
:100370000F02302B0CBF02230123012A08D0901E4C
:1003800042424241A869BDE87040006804F00DBADD
:100390000222F7E770BD10B590F8303104462BB952
:1003A000A369186804F058FA0028F9D010BD38B5D0
:1003B00090F830510446A5B983695BB1186848B11B
:1003C0000368DB689847A3691D600421A06907F0F2
:1003D000CFFEA5610023C4F82431C4F82831C4F845
:1003E0002C3138BD13B590F8303104466BBBA3698E
:1003F000186804F0F1F940B307F064F9A3691868CC
:10040000036801225B690DF107019847D4F82C318C
:10041000B3F5807F16D0D4F82C31B3F5807F11D09E
:10042000D4F824319DF80720234483F82420D4F8FD
:1004300024310133DBB2C4F82431D4F82C31013338
:10044000C4F82C3107F054F9D1E702B010BD000018
:1004500008B590F830313BB1012001F055FD064858
:10046000BDE8084001F0F7B982691AB1136800339A
:1004700018BF0123184608BD0018002070B50446B7
:100480000D4601F0E8F930B12368294620461B6C7F
:10049000BDE87040184770BDA0F5A070EEE7000001
:1004A00013B590F830318DF8071004462BB1C9B25E
:1004B0000B48FFF7E3FF02B010BDA369186804F012
:1004C000CBF90028F9D0A3691868036801221B69D9
:1004D0000DF107019847013018BF0120EBE700BF7D
:1004E000001800202DE9F04107468846164601F025
:1004F000B2F970B10024A6420CD9351B402D28BF9B
:10050000402508EB04012A46384600F0F5FE2C444D
:10051000F1E704462046BDE8F081A0F5A070E1E7D0
:1005200070B590F8303105460E4614462BB1104890
:10053000FFF7D8FF0446204670BDAB69186804F089
:100540008BF90028F9D0AB691868D0F8083101217F
:100550001B6B00F584709847AB69186803682246E6
:100560001B6931469847013008BF0024E3E700BF0C
:100570000018002030B50446C3B001F059F9D4F892
:100580005832C3F5807398420546C4BFD4F8585218
:10059000C5F580752A4601AB02A9204600F096FFFA
:1005A000019902AB6D1A00221D44D4F85832B3F5FC
:1005B000807F19D08A4217D0D4F85832B3F5807FA3
:1005C00010D0D4F85032A85C234483F85001D4F8FA
:1005D00050320133DBB2C4F85032D4F85832013310
:1005E000C4F858320132E0E743B030BD38B50446B4
:1005F00000F07EFB2046FFF7BDFFD4F8585220469E
:1006000000F07EFB284638BDA0F5A070EEE70000A4
:1006100010B590F8303104462BB10648FFF7E6FFDD
:100620000446204610BD07F04DF8D4F82C4107F0E1
:100630005FF8F6E70018002038B5044600F058FBD4
:100640002046FFF797FFD4F858324BB1D4F8543214
:10065000234493F85051204600F052FB284638BD01
:100660004FF0FF35F7E7A0F5A070E5E710B590F87B
:10067000303104462BB10B48FFF7DEFF044620461D
:1006800010BD07F01FF8D4F82C313BB1D4F8280185
:10069000044494F8244007F02BF8F0E74FF0FF34BF
:1006A000F9E700BF0018002038B5044600F020FB31
:1006B0002046FFF75FFFD4F85832A3B1D4F8543284
:1006C000234493F85051D4F854320133DBB2C4F8C8
:1006D0005432D4F85832013BC4F85832204600F066
:1006E0000FFB284638BD4FF0FF35F7E7A0F5A070A7
:1006F000DAE7000010B590F8303104462BB111480C
:10070000FFF7D2FF0446204610BD06F0DBFFD4F809
:100710002C319BB1D4F82831234493F82400D4F829
:1007200028310133DBB2C4F82831D4F82C31013B35
:10073000C4F82C31044606F0DBFFE4E74FF0FF3449
:10074000F9E700BF0018002008B54FF480720021BF
:100750000EF0C6F90022C0F80021C0F80421C0F84C
:10076000082108BD10B4D0E9003409686210E4071C
:1007700001EB020048BF8A585DF8044B48BFD358CC
:10078000184708B501460430FFF7ECFF08BD00002C
:10079000034AC260034607C983E80700704700BFE9
:1007A000AC20020010B586B004460391684606A945
:1007B00080E80C0001E90C00204603A9FFF7E8FFE0
:1007C000204606B010BD37B56C4684E80C0094E8AE
:1007D0000C000546FFF7E6FF284603B030BD0000D9
:1007E00070B590F8303186B004460D46002B37D1F5
:1007F000866926B9042007F0A5FCA0610660A369FC
:10080000186878BB4FF4867007F09CFC2B4694F96F
:10081000212094F92010064604F02AFBA3691E60EB
:1008200094F92220531C06D0A06994F92330006863
:10083000032104F02DFBA3691D688DB10B4B0093C0
:10084000002601966B460CCB214602A8FFF7BBFFA2
:100850002846324602A904F083F802A8FFF76DFD8E
:1008600006B070BD294603F08CFFD9E7E50301000F
:1008700008B5FFF786FF08BD08B5FFF7F9FF08BD0B
:100880002DE9F047194C1A4F276000254FF47A786C
:10089000C4E90158202604F12400C4E90565E56196
:1008A0004FF00109FFF750FF284684F8309101F01E
:1008B000FFFA8246484601F0FBFA0E4CFF2384F80B
:1008C0002100C4E9015804F124002760C4E905654A
:1008D000E56184F820A084F8223084F82330FFF703
:1008E00033FF84F83051BDE8F08700BF3811002095
:1008F000C02002000410002000207047704770479D
:1009000010B5D0F88C452CB123682046DB6A984797
:10091000A468F8E710BD38B5D0F88C450D4634B161
:1009200023682046DB6829469847A468F7E738BD66
:10093000004870478021020010B5054B0360044653
:1009400005F0F7FC204605F005FE204610BD00BF6F
:100950000021020010B50446FFF7EEFF20464FF4D9
:10096000B26107F005FC204610BDF7B5D0F88C4504
:1009700005460E460023A4B1236831461F690DF1D8
:10098000030201AB2046B8479DF803100429034633
:1009900005D0019A284604F0DBFF03B0F0BDA4683F
:1009A000E9E7019A9DF80310F4E770B505460E4695
:1009B00022B10021BDE8704004F0D6BDD0F88C45CE
:1009C0005CB1236800225B6931462046984710B12C
:1009D00001212846EEE7A468F2E72146F9E770B561
:1009E000D0F88C450E46054600213CB123683146BF
:1009F00020469B699847A4680146F6E72846BDE86B
:100A0000704004F0A5BEF8B5D0F88C4505460E46FA
:100A100017463CB123682046DB693A463146984781
:100A2000A468F6E728460121BDE8F84004F0EEBED0
:100A300070B5002186B0044605F0D5F80023ADF866
:100A4000063023898DF810301B0AA188E2888DF8C2
:100A500011304FF4897540F20123ADF80450ADF820
:100A60001230022540F20313EF268DF807508DF85F
:100A700009508DF80C100125090A8DF80E20ADF8EB
:100A80001430120A04F10A038DF808608DF80A5038
:100A90008DF80B008DF80D108DF80F2001AD05AE0F
:100AA0001C462A4603CAB24218605960154603F133
:100AB0000803F6D112881A80204606B070BDF8B53A
:100AC000002406460D46274630460EF0D9FBA042CC
:100AD00007D9335D05F8143005EB440301345F702A
:100AE000F2E7400000F0FE00F8BD38B5D0F88C55B4
:100AF000044635B12B6828465B6A984710B9AD6843
:100B0000F7E7284640F20233A4F8483504F24A5188
:100B1000FFF7D5FF94F84835184484F8480504F5E4
:100B2000A96038BD40F2023310B500F20A51044604
:100B3000A0F808350548FFF7C2FF94F808351844B7
:100B400084F8080504F5A16010BD00BFEC20020088
:100B500040F2023310B50446A0F8C83400F2CA408F
:100B6000FFF7B4FB94F8C834184484F8C80404F5BB
:100B7000996010BD2DE9FF4100238DF80A3090F8EF
:100B800088351B4A8DF80830012301928DF8093011
:100B90003222C0238DF80B308DF80C2001AB0446B7
:100BA00000F54E7803CBC4F83803C8F8041088F871
:100BB0000820D4F88C6509258EB1336800219B6824
:100BC00030469847478805F54E73093F00F1090103
:100BD0003A46E0180DF086FE3D44B668ECE784F82E
:100BE0003A5340462D1284F83B5304B0BDE8F081DF
:100BF0000902FFFF73B504460D46164607F0D6FFFF
:100C00004FF480730093014633462A46204605F090
:100C10005DFC024B2360204602B070BD0021020043
:100C200010B5D0F88C350446A3B9C0F88C1594F8EB
:100C300088350B7194F888354A79134484F88835DF
:100C40000B6808469B6A9847238918442081012035
:100C500010BD13469A68002AFBD19960E7E71FB5DB
:100C6000044604F0BBFF0146684604F0D9F9402170
:100C7000684604F047FAD4F88C4534B1236820461E
:100C80001B6A69469847A468F7E7684604F0CFF9FD
:100C900004B010BD10B50446FFF7E1FF2046BDE8E3
:100CA000104004F082BF000010B50D4C2378BFF354
:100CB0005B8FDB0712D4204607F04CF870B148F286
:100CC0005A0242F241310748FFF794FF204607F0ED
:100CD00063F8054A0549034807F029F8014810BDA3
:100CE0006C1200207012002000020020390901005F
:100CF00010B5FFF7D9FF0368BDE810405B6F1847D8
:100D000010B5FFF7D1FF0368BDE810409B6F18478F
:100D100010B5FFF7C9FF0368BDE81040DB6F184747
:100D200004F002BB04F016BB04F0EEBA7047704743
:100D30007047436A93F878007047D0F824017047F1
:100D40000120704700487047DC2202002DE9F04F77
:100D5000044697B00F464B22002103A80DF0C0FEB9
:100D6000D4F82431267994F80EA094F80C90002B36
:100D700006F10105637B019314BF05200020EDB24D
:100D8000002F40F0978040F20923ADF80C304FF46B
:100D90008173ADF8103080238DF8133032238DF835
:100DA000143008238DF815300B2301218DF81630EF
:100DB0008DF8250040F2022342F205404FF0240C4A
:100DC0004FF0090E04274B22ADF818308DF8211092
:100DD00002238DF82410ADF826004FF010080520EE
:100DE0008DF82A108DF82D108DF82F104FF0030B71
:100DF00006218DF80E208DF817608DF81A308DF8C9
:100E00001DE08DF81F608DF822308DF823308DF8AD
:100E10002B008DF82CC08DF831C08DF832308DF854
:100E200033108DF834008DF835C08DF81E708DF8B4
:100E300029808DF82EB08DF830708DF8361007218E
:100E40008DF839108DF8491044F20201ADF84C10BC
:100E500040F20751ADF850101D349DF804108DF884
:100E600037608DF838508DF83A008DF842508DF883
:100E70004A008DF852108DF8533044F20306402397
:100E800040F6022503A920468DF83BA0ADF83C6052
:100E90008DF83F808DF840E08DF84170ADF84450FA
:100EA0008DF84B908DF854300DF01CFD204617B096
:100EB000BDE8F08F0020FAE738B505460A4B45F843
:100EC000D03B0446FFF7F0FE05F033FA284604F065
:100ED000B3F904F17C0004F0AFF904F1700004F000
:100EE000ABF9204638BD00BF9C22020010B5044675
:100EF000FFF7E2FF20464FF4947107F039F92046DE
:100F000010BDFFF705BF000010B5034B036004469A
:100F100004F04EF8204610BDC821020010B504466A
:100F2000FFF7F2FF2046282107F022F9204610BDE6
:100F300010B5034B0360044604F03AF8204610BD98
:100F40009821020010B50446FFF7F2FF2046342135
:100F500007F00EF9204610BD10B5034B03600446A0
:100F600004F026F8204610BDB021020010B504465A
:100F7000FFF7F2FF2046382107F0FAF8204610BDAF
:100F800038B51C4B0D461968C0F80F1099889B792D
:100F900043750446A0F8131040220221284604F0AD
:100FA000A7F8402220730221284604F0A6F8402228
:100FB00060730321284604F09BF8A073284604F0D0
:100FC00037F820B9AF220C490C4806F0CBFA0023C1
:100FD00004F18502C4E9322304F1D90284F878309F
:100FE00084F8843084F8D830C4F81C21C4F8203147
:100FF00038BD00BFE42102007522020080220200F9
:101000002DE9F34104460E461546FFF781FEF288AE
:1010100023799A4237D1002D35D17778012F2ED1FF
:10102000F378202B27D13289072A24D104F10F0825
:1010300004F11605294640460DF022FCD0B1D4F843
:101040001630C4F80F30207CE17B638BA4F813309A
:1010500001EB0021607CE57C237F009501EB0041E2
:101060002568A07C637501EB0061237D627D6D6B5B
:101070002046A8473D46F378212B08BF0125284686
:1010800002B0BDE8F0810025F9E710B50446FFF78E
:101090003FFEFFF709FE217B04F0E8FF04F1850322
:1010A000C4F8C8300023C4F8CC3084F8843004F18C
:1010B0007C0004F076F894F884302BB9236820463D
:1010C000DB6BBDE81040184710BD000070B504464A
:1010D000FFF71EFED4F820512DB140F2DD120F496A
:1010E0000F4806F03FFA04F1D903C4F81C31FFF7AA
:1010F000DBFD617B04F018FF84F8D850C4F82001B0
:1011000004F1D00004F04DF894F8D8302BB92368DE
:1011100020469B6BBDE87040184770BD75220200E9
:10112000F02102000022C2607047000038B502239F
:101130004371002383600C4B044640F8703B154616
:1011400004F022F804F17C0004F01EF804F1D00051
:1011500004F01AF8C4F82451FFF7A6FD2146FFF762
:101160005FFD204638BD00BF9C22020070B50446DA
:101170000D46FFF7CDFD84F87850002D3ED194F850
:10118000843033B1FFF790FD217B04F047FD84F8F4
:10119000845004F1850304F17C0600253046C4F830
:1011A000C830C4F8CC5003F0FCFF304603F0F2FF27
:1011B00028B9154915484FF4A27206F0D3F994F8EE
:1011C000D83033B1FFF770FD217B04F027FD84F8A0
:1011D000D85004F1D903C4F81C3104F1D005002320
:1011E0002846C4F8203103F0DCFF284603F0D2FF84
:1011F00020B94FF4A77204490548DEE704F17000F6
:10120000BDE8704003F0CDBF75220200FE21020050
:101210000F22020010B50446FFF77AFD2046002198
:10122000BDE81040FFF7A2BF38B50D460446FFF7F2
:101230006FFD042D05D020460021BDE83840FFF7A2
:1012400095BF38BDF8B5164604460D461F46FFF754
:101250005FFD04233370EA8823799A4225D16978A7
:10126000012922D1EA78212A08D0222A0BD0202A6B
:101270004FF000001BD13070163401E031700F3494
:101280003C600720F8BDAB8813F0010308BF194686
:101290002046FFF76BFFAB8803F00103E366AB88E2
:1012A00003F00203A366022333700020EAE703235E
:1012B0003370E7E710B58AB00446FFF719FD6846BA
:1012C00003F066FE0A4B0093694604F1700009942E
:1012D00003F07FFF2046FFF713FD064B00211A683D
:1012E000684603F01BFE6846FFF70EFE0AB010BD0D
:1012F000C8210200EC21020070B58EB015460446EC
:101300000E46FFF7F5FC01A803F042FE0E4B0C95CC
:1013100001A9002504F17C000193CDE90A468DF86E
:10132000345003F056FF2046FFF7EAFC074B2946EE
:101330001A6801A803F0F2FD01A89DF83440FFF7F8
:10134000F7FD20460EB070BD98210200EC2102008E
:1013500010B50446FFF7DCFC94F884307BB9D4F870
:10136000CC3063B1FFF7A0FCD4F8CC30217B04F182
:10137000850204F019FE10B1012384F8843010BDF9
:101380002DE9F8431E460446894690469DF8207094
:10139000FFF7AEFC0023336094F87830E3B194F8A3
:1013A0008430CBB9D4F8CC50C5F14005454528BFB1
:1013B0004546B8F1000F05D02A464946D4F8C80082
:1013C0000DF090FAD4F8CC302B44C4F8CC30356012
:1013D00017B12046FFF7BCFF2046BDE8F843FFF7F2
:1013E0008FBCF0B50446406A90F8785085B001266D
:1013F0002DB984F830503546284605B0F0BD04AB11
:10140000002743F8047DD4E90A120096FFF7B8FFDD
:101410000399E36AA26A5B1A0A44E362A26213B9FF
:1014200084F83060E8E7606AFFF792FF3D46E3E743
:101430002DE9F0431C4691B0904606468946FFF7D9
:1014400057FC002C08BF01AC4FF00005256002A836
:101450000CBF0127002703F09BFD104B029302A94C
:1014600006F1D000CDE90D84CDE90B698DF83C7013
:101470008DF83D5003F0ADFE3046FFF741FC084BC0
:1014800029461A6802A803F049FD02A89DF83D40CC
:10149000FFF762FD204611B0BDE8F083B0210200E5
:1014A000EC21020010B5D0F8203104466BB990F859
:1014B000D83053B9FFF7F8FB402304F1D902617B20
:1014C00004F0D4FC012384F8D83010BD70B51E465A
:1014D00004460023336094F878300846EBB194F862
:1014E000D830D3B9D4F82051D4F81C11954228BF74
:1014F00015462A460DF0F6F93560D4F81C31D4F8BB
:1015000020212B44551BC4F81C31C4F8205125B9A7
:101510002046BDE87040FFF7C5BF70BD37B5044633
:10152000406A90F878502DB984F835500125284646
:1015300003B030BD02AB002243F8042DD4E90A12F7
:10154000FFF7C4FF0199A26A0A44A262226B1368E2
:101550000B441360E36A01995B1A94F83410E36258
:1015600009B9126802B91BB9012384F83530DEE7E6
:10157000606AFFF797FF0025D9E710B50021044600
:10158000FFF7D0FD204610BD10B50446FFF7F5FF6C
:10159000204610BD10B4D0E9003409686210E40799
:1015A00001EB020048BF8A585DF8044B48BFD3588E
:1015B000184708B501460430FFF7ECFF08BD0000EE
:1015C000034AC260034607C983E80700704700BFAB
:1015D000D821020010B586B004460391684606A9DA
:1015E00080E80C0001E90C00204603A9FFF7E8FFA2
:1015F000204606B010BD37B56C4684E80C0094E870
:101600000C000546FFF7E6FF284603B030BD00009A
:101610002DE9F0418AB00546FFF77AFBFFF744FB5E
:1016200006ACAF7B064600212046FFF7ADFF3946EA
:10163000032340220094304604F0DEFE2046FEF7ED
:101640007CFEFFF731FB00261D4B95F80C800293C2
:10165000039602AB07460CCB29462046FFF7CBFF8B
:101660004146022340220094384604F0C5FE20463D
:10167000FEF763FEFFF718FB124B95F80D80CDE9DE
:10168000043604AB07460CCB29462046FFF7B3FFD0
:101690004146022340220094384604F0ADFE204625
:1016A000FEF74BFEFFF700FB4023D5F81C21697BBA
:1016B00004F0DCFB012085F8D8000AB0BDE8F08119
:1016C0008B100100CD10010008B5FFF772FF08BDB7
:1016D00008B5FFF7F9FF08BD6FF015007047002946
:1016E0000CBF6FF0180000207047012070476FF0AA
:1016F000150070476FF01500704711207047704754
:101700007047704703689B6C1847A0F5A070F9E715
:10171000704770477047704710B50446012000F0CD
:10172000F3FB94F8780010BDA0F5A070F4E700007A
:1017300038B54FF0FF320123FF210B480B4D06F067
:101740008FFE00F0CFFB044695F878301BB10120E6
:1017500000F0DAFBF8E700F0C5FB001BC728F6D95C
:10176000BDE83840FEF7C4BDB81A002000180020BC
:1017700007B502AB012243F8041D1946FFF7BCFD73
:1017800018B1019803B05DF804FB4FF0FF30F9E7A2
:10179000A0F59470FFF7ECBF07B502A9002301F88C
:1017A000013D0122FFF744FE20B19DF8070003B080
:1017B0005DF804FB4FF0FF30F9E7A0F59470FFF7F8
:1017C000EBBF2DE9F8430446884617461E46089DA0
:1017D000FFF79EFAD4F87092B9F1000F04D02B46AF
:1017E000324639464046C847C4F86082C4F864723D
:1017F000C4F86862C4F86C52BDE8F883B0F5966F1F
:1018000003D10121014806F00DBE7047B81A00202F
:10181000006870470C30704708B5FFF7FBFF0023E6
:10182000036008BDCB68C3600BB15B6818477047A5
:1018300038B50546FFF75CFA95F8D8304BB9D5F8BE
:101840002041402C28BF40242846FFF759FA204663
:1018500038BD0024F8E790F878007047F7B50446E3
:101860001F4615460E4607F0A1F9BDF82430019336
:10187000BDF8203000932A463B4601462046FFF73C
:1018800055FC002104F5947005F01EFB4FF47A73AB
:10189000C4F84831194B236003F178020025C4F8DD
:1018A000282103F1D802E833C4F84451C4F82C21AC
:1018B0002946C4F840314FF4807204F5A8700DF049
:1018C0000FF904F52D77C4F85052C4F85452C4F8F7
:1018D000585204F51D7528461035FFF74EFEBD42DF
:1018E000F9D10023C4F8B432C4F8703216B12046DE
:1018F000FFF7E0FC204603B0F0BD00BFA4230200C8
:10190000114B03F1780270B50360C0F8282103F190
:10191000D802E8330446C0F82C21C0F8403100F565
:101920001D7600F52D75AE4204D0103D2846FEF719
:1019300004FDF8E704F5947005F0F0FA2046FFF78F
:10194000BBFA204670BD00BFA4230200A0F594702E
:10195000FFF7D6BFA0F59670FFF7D2BF10B50446CB
:10196000FFF7CEFF20464FF42E7106F001FC204613
:1019700010BDA0F59670FFF7F1BFA0F59470FFF7CA
:10198000EDBF884238B5044606D00D46FEF7D0FCC0
:1019900029462046FFF746FF204638BD08B5FFF729
:1019A00039FF0068003018BF012008BD10B504469B
:1019B000FFF7F4FF28B940F202220649064805F075
:1019C000D1FDE068FFF724FF03462046BDE8104044
:1019D000184700BF832302008E230200F8B5064695
:1019E000FFF796F906F51D740025D6F8B432AB4220
:1019F0000AD92046FFF7D2FF2746103420B13846D7
:101A0000FFF7D4FF0135F0E7F8BD0000044BC360D9
:101A100003460A6843F8042B002242605A6070476C
:101A20000023020013B50446019121B9FFF7F4FE2B
:101A3000204602B010BD01A9FFF7E8FFF8E710B497
:101A4000D0E9003409686210E40701EB020048BFE6
:101A50008A585DF8044B48BFD358184708B501466B
:101A60000430FFF7ECFF08BD034AC260034607C914
:101A700083E80700704700BFF422020010B586B06B
:101A800004460391684606A980E80C0001E90C00B1
:101A9000204603A9FFF7E8FF204606B010BD37B582
:101AA0006C4684E80C0094E80C000546FFF7E6FF5E
:101AB000284603B030BD000030B5044689B0FFF7BA
:101AC00017F92A4BC4F870322046FFF719F9284B52
:101AD00002930023039302AB0CCB214604A8FFF72B
:101AE000DEFF2046FFF704F9D4F8B402032809D832
:101AF000431C04EB0010C4F8B43204A900F51D70B7
:101B0000FFF73FFF2046FFF7FBF804A8FEF715FCA0
:101B1000BC2006F017FB174B054640F8043BFFF7C7
:101B20002CFD002105F1400006F022FD05F15400D6
:101B300006F0BCFC104B00934FF480720023284643
:101B4000182106F08DFDC4F85C520C4904A8FFF77B
:101B500069FF04A9284606F0D7FD04A8FEF7EDFBAF
:101B60002046FEF707FD09B030BD00BFFD1701009C
:101B700075050100903902000C23020031170100A5
:101B8000A0F5A070FFF798BF0368184708B5FFF7E6
:101B9000FBFF08BD08B5FFF761FF08BD08B5FFF7FB
:101BA000F9FF08BD37B50F4C0F4D204606F030FC4D
:101BB0002A460E49204606F0BAF80D4C42F21203AE
:101BC0000122CDE90032002211464FF4F85320469D
:101BD000FFF744FE07492A46204603B0BDE83040DF
:101BE00006F0A5B8B81A0020000200202B840100DE
:101BF000001800200119010008B50BF0ABFC2DE91D
:101C0000F04F027D012A85B005460E4640F09080D7
:101C100000214FF0FF3B04460B465F4694F804C09A
:101C200048B2BCF1000F75D194F805C0BCF1000FAB
:101C300070D1B7F1FF3F1BBF01335BB201233846C0
:101C4000934201DD1A4683460131082904F102045A
:101C50005ED1002402EB0B03A1460293CB4502DCCC
:101C6000029B4B4559DC95F8058095F804A04FEA96
:101C700028170AF00F03FAB25FEA2A1A019208F055
:101C80000F0870D05FFA8AF1BAF1090FD4BF303172
:101C900057313046039300F0B0F8039B0444092BFE
:101CA00094BF03F1300103F157013046039300F074
:101CB000A4F80444BAF1000F02D1039B03B94FB159
:101CC000092F019FD4BF30375737F9B2304600F0A3
:101CD00094F80444B8F1090F94BF08F1300108F1F9
:101CE0005701304600F089F8B9F1070F044404D0D9
:101CF0003A21304600F081F8044409F10109B9F1B4
:101D0000080F05F10205A9D1204605B0BDE8F08F06
:101D1000074683E74FF0FF3096E7CB45EDD1BBF1A7
:101D2000000FE5D13A21304600F067F80444DFE7C0
:101D300000F1100700F11309002417F8011B0A2213
:101D4000304600F097F82E218046304600F055F8D6
:101D5000B94540440444F0D10A22E97C304600F001
:101D600089F80444D0E7002B99D1A8E710B5054BBA
:101D70000360044601751022002104300CF0B0FE0F
:101D8000204610BDC024020070B5074D0560837465
:101D900000259DF81030057545608560C5600174AB
:101DA0004274C37470BD00BFC024020007B5012196
:101DB0000648FFF7DBFF002300931A461946044844
:101DC000FFF7E2FF03B05DF804FB00BFCC1A002070
:101DD000E41A002070B5044608460D460DF050FA8E
:101DE00023680246294620465B68BDE870401847D4
:101DF00009B1FFF7EFBF0846704703681B68184733
:101E00000149FFF7E7BF00BFC336020038B50546FA
:101E1000FFF7EEFF04462846FFF7F2FF204438BDE7
:101E200070B58AB00D460AA9002301F8043D012AC5
:101E300098BF0A22B5FBF2F402FB1456F3B2092E46
:101E400094BF30333733DBB2254601F8013D002C17
:101E5000F0D1FFF7CDFF0AB070BD10B42AB9036806
:101E60005DF8044B1B68C9B21847D2B25DF8044B49
:101E7000FFF7D6BFFFF7F1BF10B500F047F8FEF748
:101E8000BFF9FEF711FFFEF705FF4FF4E1310648F9
:101E9000064CFFF711FEFEF795F9FEF78BF9002CC3
:101EA000FBD0AFF30080F8E700180020000000002E
:101EB00010B50446FEF7A1F984423BBF2401024B52
:101EC0004FF0FF30185710BD0402002010B5044633
:101ED00002F07BFE204610BD10B5044602F075FEF0
:101EE000204610BD07B50749684602F0ABFE4FF427
:101EF0007A720023DDE900010BF05CF903B05DF8B4
:101F000004FB00BF001B002006F062BB08B50448BC
:101F100002F065FE0348BDE8084002F060BE00BF65
:101F2000181B0020001B002038B50A4C0A4D204623
:101F300002F0C5FE2046094C09492A4605F0F7FE85
:101F4000204602F0C7FE2A4620460649BDE8384032
:101F500005F0EDBE181B002000020020001B002031
:101F6000D91E0100CD1E010008B590F900305A1CA1
:101F700004D121220E490F4805F0F4FA012259B18B
:101F80001F2B86BF03F01F030B494FF0A04102FA3D
:101F900003F3C1F8083508BD1F2B86BF03F01F03EC
:101FA00005494FF0A04102FA03F3C1F80C35F2E7FE
:101FB0003D2502004B250200000300502DE9F843A7
:101FC00004460F46FEF719F9844236D21C4D4FEAFB
:101FD000041805EB0802D06810B1012106F0C8F81A
:101FE0002046FFF765FF8146012006F0ABF800268A
:101FF00006704946044604F069FB05EB0803012F0F
:10200000DC6010D006D3022F12D0204602F0E3FA93
:10201000012103E0204602F0DEFA31462046BDE809
:10202000F84302F0E5BA2046BDE8F84302F0C6BA2C
:10203000204602F0D0FA0321F0E7BDE8F88300BFA4
:1020400004020020F7B506460F46FEF7D6F8864292
:102050001BD20F4D05EB0615EC687CB93046FFF737
:1020600027FF0646012006F06DF8002304460370A2
:1020700001220097314604F03FFBEC6039462046D0
:1020800003B0BDE8F040FFF76FBF03B0F0BD00BF85
:10209000040200201EF0040F0CBFEFF30880EFF3E2
:1020A0000980816911F8021C002932D101B590E83C
:1020B0000F10E047BDE800508CE80300244B93E884
:1020C0000600914208BF70471A6041B91EF0100F18
:1020D00010D1204B186820F0010018600AE02CE9AC
:1020E000F00F1EF0100F08BF2CED108A81F822E0CF
:1020F000C1F838C0906B92F8221061F0FF0E1EF00C
:10210000100F08BFB0EC108AB0E8F00F80F3098818
:102110007047114A13689942FAD801B552F821C0A4
:102120000FC8E047BDE80050CCF80000704701B58B
:1021300001F030FBBDE80140EFF3098CBEE701B5CB
:1021400001F0ECFABDE80140EFF3098CB6E70000BE
:102150003804002034EF00E02C26020008B50146C8
:1021600030B96FF0030000F0EEF96FF0030008BD26
:10217000132001F0AFFE30B94FF0FF3000F0E3F96B
:102180004FF0FF30F3E70020F1E7000008B5EFF370
:1021900005832BB9EFF3108313B9EFF3118333B138
:1021A0006FF0050000F0CFF96FF0050008BDDFF813
:1021B00008C000DFFAE700BF5D210100EFF31083E4
:1021C0002BB9EFF31180003818BF012070470120B0
:1021D0007047000038B50546A0B1846802686CB14C
:1021E00014F0030302D1C1680F2926D86FF008014B
:1021F000002002F0A7F80024204638BDC368002B59
:10220000F4D11546104BD3F8900078B100F0FAFBEA
:102210000446A0B10123A3700023C4E90233F322D2
:10222000094B2270094A65605A66E5E7D3F88000D9
:102230000122102100F06EFBEAE71546EBE76FF094
:10224000040102F07FF8D7E724040020B92201003E
:10225000930710B502F0010422D400F10C0384B1FD
:1022600053E8000F00EA01028A4203D0BFF32F8F28
:10227000002005E020EA010243E8002404B1EFE772
:1022800010BD53E8000F084203D1BFF32F8F002089
:1022900005E020EA010243E8002404B1F1E7EFE79A
:1022A000C06801EA00031CB1994218BF0020E7E7AB
:1022B000002B08BF0020E3E7F8B58468054604B9A1
:1022C000F8BD94F82320616AA7682846FFF7C0FF8D
:1022D000064638B1204601F0D6FB002231462046A2
:1022E00001F050FD3C46EAE7F8B50D4617461E469C
:1022F000044620B10378F32B01D1002907DA2046E8
:102300006FF0030102F01EF86FF00300F8BDFFF755
:102310009FFF0028FAD186B13146432001F0DAFD53
:1023200040B1074B5E692046314601F091FB756272
:1023300086F823706FF00100E8E76FF00200E5E730
:102340002404002070B5054610B10378F32B07D0A4
:1023500028466FF0030101F0F5FF6FF0030070BD38
:10236000836863B1284601F085FB00226FF002010B
:1023700001F008FDA8680028F4D101F0E9FBAB7872
:10238000002613F001032E700FD0094BD3F89040B4
:10239000294624B1204600F04FFB3046DFE7D3F852
:1023A000800000F0EBFA2046D9E71846D7E700BFD7
:1023B000240400202DE9F041064620B10378F32BD8
:1023C00001D1002909DA6FF00301304601F0BAFFAC
:1023D0006FF003052846BDE8F08100F10C0353E8D7
:1023E000002F42EA010543E8005000B1F7E7B46866
:1023F0001CB9204601F0ACFBECE794F82320616A9D
:10240000D4F808803046FFF723FF074678B194F8E8
:1024100023309B0756BF656A054620EA050520461E
:1024200001F031FB00223946204601F0ABFC444666
:10243000DEE7000008B50246EFF3058333B1002064
:102440006FF0050101F07EFF002008BDFFF7B6FE2A
:102450000028F4D1DFF808C0104600DFF5E700BF20
:10246000D521010038B50246EFF305834BB192B98F
:102470006FF00301104601F065FF6FF00304204682
:1024800038BDFFF79BFE0028F1D1DFF830C01046C1
:1024900000DF0446F3E71378F32BE9D10029E7DBEB
:1024A00002F10C0353E8000F40EA010443E8004541
:1024B00005B1F7E7104601F0B5F9E0E7B5230100F3
:1024C00038B504461D46EFF3058343B18CB9204669
:1024D0006FF0030101F036FF6FF0030038BDFFF726
:1024E0006DFE0028F2D1DFF828C020462B4600DF21
:1024F000F4E72378F32BEAD1002DE8D10029E6DBBD
:102500002046FFF7A5FE002808BF6FF00200E5E7B0
:10251000E922010008B50246EFF305833BB11046FE
:102520006FF0050101F00EFF6FF0050008BDFFF729
:1025300045FE0028F3D1DFF808C0104600DFF5E7BC
:102540004523010070477047EFF310832BB9EFF379
:102550001180003818BF012070470120704700002B
:10256000064BDA6A3AB1D0695B6C1BB11B699842C1
:1025700028BF184670474FF0FF30F5E724040020CD
:1025800070B5464C237A012B00F0858033B14FF0B3
:10259000FF3001F0CBFE4FF0FF3070BD404DD5E96C
:1025A0000B61EB68E3652B8AA4F854303046AB68C6
:1025B000236400F097F908B1C4F88060D5E905619B
:1025C000304600F08FF908B9D4F880606667D5E925
:1025D0000761304600F086F908B9D4F88060A66734
:1025E000D5E90961304600F07DF908B9D4F880607A
:1025F000E6676E6B3EB1D6E902233168304600F0E3
:10260000E0F9C4F88460AE6B3EB1D6E902233168CC
:10261000304600F0D6F9C4F88860EE6B3EB1D6E9DA
:1026200002233168304600F0CCF9C4F88C602E6C7F
:102630003EB1D6E902233168304600F0C2F9C4F851
:1026400090606E6C3EB1D6E902233168304600F0EE
:10265000B8F9C4F89460AE6C3EB1D6E90223316893
:10266000304600F0AEF9C4F89860EE6C3EB1D6E9A1
:1026700002233168304600F0A4F9C4F89C602D6D47
:102680003DB1D5E902232968284600F09AF9C4F83B
:10269000A0500123237200207FE700BF2404002004
:1026A000BC25020070B5254D2B7A012B07D06FF0A9
:1026B000060001F03BFE4FF0FF34204670BD01F0F4
:1026C0003DFC10B94FF0FF30F3E71D4A1D4E1E4987
:1026D0007068FF2382F8223092F82230D26863F0CB
:1026E000FF03DB4314BFB3FA83F32023C3F12003BA
:1026F000C2F30222934298BF531CFE2202FA03F354
:102700000F4ADBB2D37701F06DFE04460028D9D121
:1027100001F0BCFE286101F0A5FE0C4801F0AAF909
:1027200001F00EFA3368DB074CBF0223032383F367
:102730001488BFF36F8F02232B72BEE7240400209E
:1027400000ED00E0BC2502003F2101004004002014
:1027500010B50F4C237A022B13D101F08BFE01230D
:102760006372BFF34F8F0B4A5168C90042BF4FF0ED
:1027700000615160A37204232372BDE81040FFF78B
:10278000EFBE6FF0070001F0D1FD002010BD00BFCB
:102790002404002000ED00E038B51E4C237A042B01
:1027A000054635D1FFF7DCFEE26AA842034694BF36
:1027B00000F1FF332B4612B1D069C01AD061626CB0
:1027C00012B11069C01A1061E06803440544E36067
:1027D000E368AB4213D102230020237201F0B8F961
:1027E00000236372BFF34F8FA27A22B1A3720A4B08
:1027F0004FF080525A60BDE8384001F033BE0133DB
:10280000E36001F063F9236D002BE1D09847DFE727
:1028100038BD00BF2404002000ED00E0704738B54B
:1028200004460D46FFF78EFE29462046BDE8384097
:1028300001F03EBD08B5FFF7F1FFEFF3058333B1BB
:102840006FF0050001F072FD6FF0050008BDFFF7A5
:102850007BFE0028F4D1DFF808C000DFF6E700BFF8
:102860008125010008B5EFF3058333B16FF0050052
:1028700001F05CFD6FF0050008BDFFF765FE002864
:10288000F4D1DFF808C000DFF6E700BFA52601009D
:1028900008B5EFF305832BB16FF0050001F046FD9D
:1028A000002008BDFFF750FE0028F5D1DFF804C076
:1028B00000DFF6E75127010008B50246EFF3058374
:1028C0002BB1BDE808406FF0050001F02FBDFFF708
:1028D0003BFE0028F5D1DFF808C0104600DF08BD38
:1028E0009927010010B598B140EA010313F00703DE
:1028F0000ED117290AD90160083910220C188460FA
:1029000042600B5081684A60C3600123184610BDC5
:102910000023FBE7F0B578B399B132F003032BD174
:102920000F3121F0070700F108052B462D685C6880
:10293000E91A24F00304091B8F4204D929680029ED
:10294000F3D10846F0BD466804683E444660204422
:10295000083841688E4288BF466058683A4318B9C3
:102960005A6003F10801ECE720F0030019181D502C
:102970004A6019600831E4E70021E2E730B590B120
:10298000D9B1A1F1080500F108040022AC420BD135
:1029900051F8043C23F0030443681B1B436042B915
:1029A00041F8042C012030BD236822463BB11C466F
:1029B000ECE751F8083C1360F4E70846F3E71846E3
:1029C000F1E730B5C0B189B1C2B1CBB10024C0E9E3
:1029D000014202FB01F41D190160C36043610561FE
:1029E0001846013904D1A21A99500121084630BD78
:1029F000851805602846F4E70146F7E71146F5E734
:102A00001946F3E710B50346A8B100F1140252E8E5
:102A1000000F10B9BFF32F8F04E0016842E80014E3
:102A200004B1F4E738B1043353E8002F511C43E8F4
:102A3000001404B1F8E710BD30B5F0B1C3688B42A3
:102A40001BD803698B4218D900F114031A680A6075
:102A5000BFF35F8F53E8002F0C689442F6D143E830
:102A6000001505B1F2E7043050E8003F5A1E40E877
:102A7000002101B1F8E7002030BD6FF00300FBE753
:102A8000EFF310832BB9EFF31180003818BF01204A
:102A9000704701207047036B30B5E3B1CD78002457
:102AA000DA78AA420FD31A46C1E901248AB19160AB
:102AB000A4B16160283050E8003F5A1C40E8002172
:102AC00001B1F8E730BD5A681C46002AECD0134625
:102AD000E6E7C162ECE7C1E90133C1620163E9E7FE
:102AE000D1E9013223B19A608A681AB15360704704
:102AF000C262F9E703637047F8B5877804468FB37D
:102B0000C56801460027284605F10C06FFF7E8FFD7
:102B100027703046FFF790FFAB68002B48D0304657
:102B2000FFF770FF0446002842D0284600F0A2FFBD
:102B30003A460646394601F025F9304600F0F6FFE0
:102B40006A6A8168064604F10C000BF0CBFEF9239B
:102B50002370A770F368E37021462846BDE8F8406B
:102B6000FFF799BF8568AB68002BF5D05B78832BA6
:102B7000F2D1284600F07EFF3A460646394601F07B
:102B800001F9304600F0D2FF06466A6A806804F117
:102B90000C010BF0A7FEF3680BB1E2781A7000236A
:102BA0002370214605F10C00BDE8F840FFF744BF53
:102BB000F8BD00002DE9F0410C4617469846054641
:102BC00018B10378FA2B00D141B928466FF0030100
:102BD00001F0CEFB6FF00300BDE8F0818368C3B164
:102BE0005B78832B15D100F045FF012206460021BA
:102BF00001F0C8F8304600F099FF06466A6A80681E
:102C000021460BF06FFEF0680028E5D00770002029
:102C1000E2E705F10C00FFF7F5FE064670B121462C
:102C20006A6A0C300BF05EFE0024F9233370B47036
:102C3000F77031462846FFF72EFFE8E7B8F1000F9E
:102C400010D04146932001F045F940B1074B28468A
:102C5000596900F0FDFEEFF30983C3E902476FF005
:102C60000100B9E76FF00200B6E700BF24040020BE
:102C70002DE9F84F8846074638B131B1B0FA80F3F4
:102C8000B1FA81F10B441F2B06DC6FF00301002029
:102C900001F06EFB002470E008F1030626F0030645
:102CA0000C3606FB00F9F2B194683CB1A30702D1DF
:102CB000D368332B05D86FF00801E8E7D368002B01
:102CC000F9D1D2E90453D2F800A03DB115F0030BBD
:102CD00001D1994554D96FF00901D8E7002BFAD1F9
:102CE0001CB19B460CE092461546274BD3F8A0003A
:102CF000D8B1FFF787FE0446A0B14FF0010B35BBFA
:102D0000214B0022D86F4946FFF704FE0546C0B9A3
:102D1000BBF1000F06D01C4BD3F8A000214658B1E0
:102D2000FFF78AFE6FF00401B1E7D3F880000122BB
:102D30003421FFF7EFFDDEE7D3F88000FFF71EFE3A
:102D4000F0E74A4600210BF0CBFE4BF0020BFA23D2
:102D500023700023C4E90983C4E90B33A36032461E
:102D60002B4684F802B0C4F804A0394604F10C00E4
:102D7000FFF727FE044B054A1A672046BDE8F88F87
:102D8000002CE4D1B1E700BF24040020F92A01009F
:102D900010B500F1280353E8002F12B9BFF32F8FAD
:102DA00004E0511E43E8001404B1F4E70AB900201E
:102DB00010BDC06A01230028F9D0821CD2E84F1F41
:102DC000C2E8443F04B1F9E711F0FF0FF0D080688A
:102DD000F1E700002DE9F0410F46154698460446FC
:102DE00018B10378FA2B00D141B920466FF00301E6
:102DF00001F0BEFA6FF00300BDE8F081FFF7C8FFF5
:102E0000064600283AD001462046FFF769FE626A6E
:102E100006F10C0138460BF065FD0DB1F3782B700F
:102E2000002504F10C07357031463846FFF704FEE3
:102E3000A3680BB90020DFE73846FFF7E3FD06463D
:102E40000028F7D0204600F015FE2946074601224B
:102E500000F098FF384600F069FE626A8168074614
:102E600006F10C000BF03EFDF9233370B570FB68E2
:102E7000F37031462046FFF70EFEDBE7B8F1000F96
:102E800010D04146832001F025F840B1074B204681
:102E9000596900F0DDFDEFF30983C3E902756FF0B6
:102EA0000100A9E76FF00200A6E700BF240400209C
:102EB00008B5064B08219A6ED86EFFF7D9FE044B71
:102EC000D864B0FA80F04009404208BDBC25020039
:102ED000240400202DE9F04106460F4690461C468A
:102EE000EFF305834BB196B930466FF0030101F063
:102EF0003FFA6FF00300BDE8F081FFF7C1FD002845
:102F0000F1D1DFF84CC03046234600DFF3E73378D9
:102F1000FA2BE9D1002FE7D0002CE5D106F10C0007
:102F2000FFF770FD054680B1726A39460C300BF030
:102F3000D9FCF9232846C5E901762B70AC7085F8D9
:102F4000038000F06FFC2046D5E76FF00200D2E767
:102F5000B52B0100F8B504460F4616461D46EFF3A3
:102F6000058343B18CB920466FF0030101F000FAEC
:102F70006FF00300F8BDFFF783FD0028F2D1DFF802
:102F800048C020462B4600DFF4E72378FA2BEAD12D
:102F9000002FE8D0002DE6D12046FFF7F9FE0546C8
:102FA00070B100F10C01626A38460BF09BFC0EB167
:102FB000EB7833702846EC6000F034FC0020D9E751
:102FC0006FF00200D6E700BFD52D0100EFF31083AC
:102FD0002BB9EFF31180003818BF01207047012092
:102FE0007047000070B5A8B38468D0E900566CB192
:102FF00014F0030302D1C2681B2A1AD86FF008012B
:10300000002001F0A5F90024204670BDC368002B04
:10301000F4D1124BD3F8940030B9D3F880000122D8
:103020001C21FFF777FC01E0FFF7ECFC044660B1E0
:103030000123F522A3700023C4E90233C4E9043359
:103040002270E67065602376DEE76FF0040101F020
:103050007FF9D9E705460646DBE700BF24040020D8
:10306000284B70B55D6904460E4635B96FF007010F
:1030700001F06EF94FF0FF3070BD10B10378F52B01
:1030800007D020466FF0030101F062F96FF00300F2
:10309000F2E7037E53B9C0E90353EB6A436103B11E
:1030A0001861EC62012323760020E5E7C278D1079E
:1030B0000DD5C168A9420AD1FF2B06D16FF00F01CF
:1030C00001F046F96FF00200D6E70133EBE7002E7E
:1030D000F8D093070AD5E06895F9203090F92020C0
:1030E0009A4203DA80F8203000F0D6FC31465320B3
:1030F00000F0F0FE18B12946204600F0A9FC6FF060
:103100000100B9E7240400202E4B5A6970B504462B
:1031100032B96FF0070101F01BF94FF0FF3070BDBD
:1031200010B10378F52B07D020466FF0030101F0B2
:103130000FF96FF00300F2E7037E33B96FF00E0171
:1031400001F006F96FF00200E9E7C168914202D090
:103150006FF00D01F4E7013BDBB2037613BB43696B
:103160000BB1016919612169F1B14B6192F921300B
:10317000D56ADDB982F82030A36883B1204600F01B
:1031800079FC06462A46294600F0FCFDF36A636195
:10319000C4E9036503B11C610123F46223760020B6
:1031A00000F0D6FC0020BAE7D362DFE7E9788907B0
:1031B00006D5A96821B191F920108B42B8BF0B4602
:1031C0006D69D6E72404002070B5044610B1037879
:1031D000F52B07D020466FF0030101F0B9F86FF02E
:1031E000030070BD037EBBB16369C0680BB1226987
:1031F0001A61226902B3536190F92120C36AEBB9C5
:1032000090F92030934203D080F8202000F044FC55
:10321000A068F8B900F09CFCA078002610F001002E
:103220002670DED0134BD3F894502146DDB12846EA
:10323000FFF702FC3046D4E7C362DDE7D97889079F
:1032400006D5996821B191F920108A42B8BF0A4683
:103250005B69D4E7204600F00DFC00226FF002010C
:1032600000F090FDD4E7D3F88000FFF787FB2846F5
:10327000B7E700BF240400202DE9F04104460026F2
:1032800001270CB9BDE8F081E378D4F814801B075E
:1032900012D5A36826767BB1204600F0EBFB002216
:1032A0000546114600F06EFDEB6A6361C4E9035602
:1032B00003B11C61EC6227764446E2E710B4C378A0
:1032C0009B071DD5C06890F92120C36ADC78A4074C
:1032D00009D59C688C4208BF8C6824B194F92040C1
:1032E000A242B8BF22465B69002BEFD190F9203093
:1032F000934205D080F820205DF8044B00F0CCBB51
:103300005DF8044B7047000008B50246EFF30583F3
:1033100033B100206FF0050101F01AF8002008BD5C
:10332000FFF754FE0028F4D1DFF808C0104600DF94
:10333000F5E700BFE52F010008B50246EFF305836E
:103340003BB110466FF0050101F002F86FF0050087
:1033500008BDFFF73BFE0028F3D1DFF808C0104698
:1033600000DFF5E76130010008B50246EFF30583A1
:103370003BB110466FF0050100F0EAFF6FF0050069
:1033800008BDFFF723FE0028F3D1DFF808C0104680
:1033900000DFF5E70931010008B50246EFF30583C8
:1033A0003BB110466FF0050100F0D2FF6FF0050051
:1033B00008BDFFF70BFE0028F3D1DFF808C0104668
:1033C00000DFF5E7C9310100EFF310832BB9EFF30C
:1033D0001180003818BF01207047012070470C3061
:1033E000D0E85F3F13B9BFF32F8F04E05A1EC0E847
:1033F000512F01B1F4E798B2003818BF012070478F
:1034000030B500F10C02C189D2E85F3F994202D881
:10341000BFF32F8F04E05C1CC2E8554F05B1F3E702
:10342000C0899BB2984294BF0020012030BD0000AB
:10343000F8B515464FF6FE73421E9A4206460F46F1
:1034400001D8884207D26FF00301002000F086FF08
:1034500000242046F8BD7DB1AC682A6844B114F060
:10346000030302D1E9680F2922D86FF00801ECE7C5
:10347000EB68002BF9D11546114BD3F8980080B1B9
:10348000FFF7C0FA0446A8B10123A3700023F62277
:10349000A3600B4B22700B4A6560A781E6819A6698
:1034A000D7E7D3F8800001221021FFF733FAE9E7CC
:1034B0001546EAE76FF0040100F050FFC9E700BFCE
:1034C00024040020C9340100836810B504465BB1B0
:1034D000FFF785FF40B1204600F0CCFA0022BDE89E
:1034E0001040114600F04EBC10BD38B5054610B175
:1034F0000378F62B07D028466FF0030100F02EFF6B
:103500006FF0030038BD84683CB100F0B3FA0122CB
:10351000002100F037FC0020F4E7FFF771FF38B915
:1035200028466FF0100100F019FF6FF00200E9E784
:103530002046E7E738B50D46044610B10378F62B70
:1035400007D020466FF0030100F008FF6FF0030082
:1035500038BDFFF744FF68B975B12946632000F014
:10356000B9FC20B1064B2046596900F071FA6FF0A2
:103570000100EDE70020EBE76FF00200E8E700BF95
:103580002404002070B5054610B10378F62B07D04F
:1035900028466FF0030100F0E1FE6FF0030070BDFC
:1035A000836863B1284600F065FA00226FF00201DB
:1035B00000F0E8FBA8680028F4D100F0C9FAAB7865
:1035C000002613F001032E700FD0094BD3F898405A
:1035D000294624B12046FFF72FFA3046DFE7D3F81B
:1035E0008000FFF7CBF92046D9E71846D7E700BFA0
:1035F0002404002010B50446EFF3058333B1002006
:103600006FF0050100F0AAFE002010BDFFF7DCFE00
:103610000028F4D1DFF808C0204600DFF5E700BF3E
:103620003134010008B50246EFF3058343B182B996
:1036300010466FF0030100F091FE6FF0030008BD2B
:10364000FFF7C2FE0028F2D1DFF824C0104600DFE9
:10365000F5E71378F62BEBD10029E9D11046FFF7F7
:10366000BEFE002814BF00206FF00200E7E700BF95
:103670003535010010B50446EFF3058343B184B935
:1036800020466FF0030100F069FE6FF0030010BDEB
:10369000FFF79AFE0028F2D1DFF830C0204600DFA5
:1036A000F5E72378F62BEBD12046FFF7A9FE20B1F2
:1036B000204600F0B7F80020E9E720466FF010013F
:1036C00000F04CFE6FF00200E1E700BFEB340100B8
:1036D00008B50246EFF305833BB110466FF00501D4
:1036E00000F03CFE6FF0050008BDFFF76DFE0028FE
:1036F000F3D1DFF808C0104600DFF5E7853501009B
:1037000010B5D0E85F3F5A1C914200D80022C0E8B3
:10371000542F04B1F5E798B210BD000038B51C4C29
:1037200000F0AEFEE3680133E36000F0CFF9002063
:1037300000F00EFA236D03B19847226C32B3A369EF
:10374000E16B994203D0D969E36301B9DA61DA69BF
:10375000C2B9237A022B19D1656ABDB1E36B95F921
:10376000202093F920309A4210D1284600F08BF99E
:10377000E06B00F0A3F9284600F0E2F9236CE56362
:10378000EB6103E0013ADA61002AE2D038BD00BF04
:103790002404002070B5224C04F1560504F15A06A9
:1037A000B4F85410D5E85F3F13B9BFF32F8F04E08E
:1037B0005A1EC5E8502F00B1F4E79BB25BB3304608
:1037C000FFF79EFFE36D53F8200020B30378F13B31
:1037D000082BE5D801A252F823F000BF0138010000
:1037E000A137010007380100A1370100A13701000E
:1037F0000B3801000F380100A13701001338010018
:10380000236E9847CCE7636EFBE7A36EF9E7E36EA0
:10381000F7E7236FF5E7BDE87040002000F098B9A6
:103820002404002070B5164C0546B4F8541004F179
:103830005602D2E85F3F994202D8BFF32F8F04E0CF
:10384000581CC2E8560F06B1F3E79BB2994205D85F
:1038500029460220BDE87040FEF7E1BF04F15800A0
:10386000FFF74EFFE36D43F82050637A23B9054B11
:103870004FF080525A6070BD0123A372FBE700BF76
:103880002404002000ED00E0EFF310832BB9EFF3E8
:103890001180003818BF012070470120704703785D
:1038A000F12B00D07047C068F9E7000010B5C4697B
:1038B000621CD0E904310CD103B1596142691AB1DB
:1038C00013610023436101E0074A13630023C361CE
:1038D00010BD1BB1DA6959612244DA614269002ADC
:1038E000EED1014AD362F1E72404002010B50A4A60
:1038F00090F9201001234370536A1C321BB193F9D5
:1039000020408C4205DCC0E90232906003B1D860EF
:1039100010BD1A469B68F1E724040020014B58694A
:10392000704700BF2404002008B500F027FDDFF831
:1039300010C000DF4FF0FF31002000F0FDFCFEE77B
:10394000ED3D0100930710B502F0010422D400F10F
:10395000280384B153E8000F00EA01028A4203D031
:10396000BFF32F8F002005E020EA010243E8002486
:1039700004B1EFE710BD53E8000F084203D1BFF3D5
:103980002F8F002005E020EA010243E8002404B163
:10399000F1E7EFE7806A01EA00031CB1994218BF22
:1039A0000020E7E7002B08BF0020E3E710B5084A36
:1039B000136B00213BB94FF0FF34C0E90431C461FF
:1039C00021B1086110BD19461B69F3E71063F9E7DF
:1039D0002404002010B50023038083789A0704464E
:1039E00008D513F0100F016B0E4B0FD0D3F88400E5
:1039F000FFF722F8A378DB0712D50A4BD3F888002B
:103A0000214638B1BDE81040FFF716B8586FFEF7F1
:103A1000B5FFEFE7BDE81040D3F88000FEF7AEBF7A
:103A200010BD00BF24040020C278D207034601D491
:103A3000FFF7D0BF042242700022C260034A516BDC
:103A4000816001B1C8605363704700BF2404002047
:103A500010B591F9202083681BB193F9204094425E
:103A600005DAC1E90230816003B1D96010BD1846A2
:103A70009B68F1E783689A68826002B1D060002297
:103A8000DA6018467047C2682AB18368936003B150
:103A9000DA600023C360704710B50146044664B184
:103AA0002378F12B07D00846FFF7EDFF2046BDE84D
:103AB0001040FFF7CDBFE468F1E710BD01230146D8
:103AC00043700148FFF7C4BF4004002038B5164DCD
:103AD000EC6A44B3E369013BE36123BB6378732B76
:103AE00006D009D8532B0BD003F0DF03432B0DD1A5
:103AF0002046FFF7D4FE09E003F0EF03832BF6E73F
:103B00002046FFF7CCFE2146FFF7D8FB2046FFF703
:103B1000BAFFFFF7D3FF246924B1E369002BDDD09E
:103B200000236361EC6238BD2404002090F8223049
:103B3000826B13F0100F0CBF6020202010447047E0
:103B400002234370014B9861704700BF240400209A
:103B500070B5124D04462E7A696990B9022E0FD1C4
:103B60006C6A6CB194F9202091F920309A4207DDFB
:103B70002046FFF788FF0846FFF7B8FE6670AC6185
:103B800070BD022E05D190F9202091F920309A4283
:103B9000F1DC2046BDE87040FFF790BF2404002010
:103BA0002DE9F04F85B08146029128B96FF00301ED
:103BB00000F0C2FB0024BCE0002A45D0966846B164
:103BC000B40702D1D368432B06D86FF00801002058
:103BD000EEE7D368002BF8D1D2E9044597693CB1F0
:103BE000600702D1002D40F0B2806FF00A01EEE7CD
:103BF0002FB17B1E372B03D96FF00B01E7E7182796
:103C0000002D40F0A880D2E900A301934EBB574B92
:103C1000D3F88800F0B1FEF7F5FE064600283AD04A
:103C20004FF00108002C44D1DFF840B1E5B9504A0B
:103C3000DBF88400556DB8B1FEF7E4FE0246E0B152
:103C400048F01008344623E09246144618271546DB
:103C50000192DCE7D3F8800001224421FEF75AFEEE
:103C6000DBE74FF00008DDE72246DBF87400294669
:103C7000FEF750FE02460028E4D1B8F1000F16D03E
:103C8000DBF8882052B110463146FEF7D5FE0022FF
:103C900048F002087CB96FF0040198E7DBF8800077
:103CA00003923146FEF76AFE039A1446F0E7424655
:103CB000EEE72246344640F2F1132380019BE37085
:103CC0000023C4E90233C4E90433C4E90633C4E978
:103CD0000933C4E90B32A5F140031344C4E90E399A
:103CE0007FB2244B84F80280FD21C4F804A084F83C
:103CF000207084F821706184656313601C4B1B681D
:103D00005B071AD4A36B00201A4603F1340143F871
:103D1000040B9942FBD1184BC2E90D394FF0807367
:103D2000D363029B1362114B144A1A662046FFF7B5
:103D30000FFF204605B0BDE8F08FAD08113D4FF0F4
:103D4000CC33002DDED042F8043F013DF9E7002FCF
:103D50007FF44FAF182769077FF447AF084BA5F1F1
:103D6000480199427FF64FAF3FE700BF240400208F
:103D7000BC250200A52E5AE229390100A93D010007
:103D8000B7FFFF7F38B504461546FFF7CFFE016049
:103D90002046FFF78BFD1DB1BDE83840FFF7D8BEC8
:103DA000BDE83840FFF78ABE10B54378332B044690
:103DB0000CD1416A90F82320FFF7C4FD014628B1D9
:103DC00020460022BDE81040FFF7DCBF10BD10B553
:103DD0000446806918B100221146FFF7D3FF6378CB
:103DE000232B02BFA36800229A6110BD70B50F4C4F
:103DF000267A022E18D1636AB3B16569E86AFFF7C3
:103E00003BFA2846FFF7E3FF04F11C00FFF732FE00
:103E10004670A061EFF30983AB630023636128461A
:103E2000BDE87040FFF700BE70BD00BF2404002055
:103E300010B5044610B10378F12B07D020466FF07F
:103E4000030100F079FA6FF0030010BD437803F02E
:103E50000F03022B1ED0032B2BD0012B2ED1FFF7EB
:103E600012FEE06AFFF708FA2046FFF7B0FF61781C
:103E7000022926D11548FFF7FDFD154B41709861C9
:103E8000EFF30982A26300225A612046FFF7CCFDBE
:103E90000020DAE70E4B1A7A022A02D15B6A002B65
:103EA000DFD16FF00201204600F046FA6FF0020009
:103EB000CBE7FFF7E8FDFFF7F9FCD2E76FF002016F
:103EC000F2E70020FFF744FEDFE700BF40040020D8
:103ED0002404002038B5174C237A022B024627D140
:103EE000606A60B160694B1C427009D1FFF75EFDEA
:103EF0001148FFF7BFFD02234370A061012038BDC8
:103F0000E36A002213B1DD69A9420BD2C0E9043291
:103F1000C1615AB11061002BEAD0DA695861511AB7
:103F2000D961E5E71A46491B1B69EBE7E062F2E756
:103F30000020E4E7240400204004002038B50D4CA4
:103F40000D48A26D0D4D0021FFF72AFE636EA86299
:103F50005BB1984758B9E26DE96C206EFFF720FE1F
:103F6000A864003818BF012038BD0120FCE70020FC
:103F7000FAE700BFBC250200A9420100240400208A
:103F800010B50446EFF3058333B100206FF005014F
:103F900000F0D2F9002010BDFFF776FC0028F4D124
:103FA000DFF808C0204600DFF5E700BFA13B0100B5
:103FB00008B5EFF3058313B1054B586908BDFFF74A
:103FC00063FC0028F8D1DFF80CC000DFF6E700BF83
:103FD000240400201D39010010B5044600F0DAF970
:103FE000EFF305833BB120466FF0050100F0A4F923
:103FF0006FF0050010BDFFF747FC0028F3D1DFF894
:1040000008C0204600DFF5E7313E01000C4A536C42
:1040100030B5002413B11D698D420AD9C0E90243AD
:1040200001611BB11D699860691A19612CB1E060CA
:1040300030BD1C46491BDB68ECE75064F8E700BF65
:10404000240400202DE9F041184D6C6C54B3236911
:104050006E69013B23610127236913BBE3680BB140
:10406000A2689A606B640023E86C1A4604F1180198
:10407000FEF730FF58B1D5E90583214603206B6177
:10408000FEF7CDFB6B6913B9B04508BF0026E37896
:10409000012B09D161692046FFF7B8FF6C6C002C39
:1040A000DAD16E61BDE8F0816770F7E72404002083
:1040B00008B5FEF7FDFE18B9034B044A1A6508BDA2
:1040C0004FF0FF30FBE700BF240400204540010013
:1040D00007B504464FF0FF33002269462046FEF73D
:1040E00039FF0028F6D1DDE900309847F2E70000FB
:1040F00008B5094B094A1A60094B9B1A094A136013
:10410000094B0A4A1A600A4B9B1A0A4A136000F0CC
:1041100051F800F069F800BFE421002000FC032002
:1041200000000420E0210020EC24002008B0002042
:1041300000FC0320E82400200E4838B50E4B036035
:104140000B250E4B45601C24C4608360FFF7DCF830
:104150000B4B18600B480C4BC460C0E900350B4B8F
:104160008360FFF7D1F80A4B1860BDE8384009F0CA
:10417000C7BF00BFB021002090260200C42100204C
:10418000C0210020802100209D26020094210020D3
:1041900090210020FDF770BE024B4FF0FF311868F0
:1041A000FFF7CAB8C0210020014B1868FFF7DCB840
:1041B000C021002008B505F081FABDE8084000F0F4
:1041C00011B87047704708B500F042F8FFF7F9FFE3
:1041D000FFF7B2FFFFF7F6FF03F0DEFBBDE8084094
:1041E000FFF7D8BFFEF726BB114C124B23614FF4EB
:1041F000004363614423E3600F4BA360182307B5BA
:10420000A3610E480E4B236022460021FFF7B8FE43
:10421000034628B90B49009022460B4803F0C4FB23
:10422000FEF720FB0023094900931A46F5E700BF7B
:1042300000AB0020002B0020E8210020C741010036
:10424000B7260200BC2602001D010180D82602000C
:104250001FB5064B0FCB6C4684E80F002046FFF7D6
:1042600053F8034B186004B010BD00BFF0260200E5
:10427000F82A002073B506460C46154603F08EFB5F
:1042800058B906342ABF064B064953F824100023B8
:1042900000933246284603F087FB02B070BD00BF92
:1042A000B42802000828020008B500F0F3F8000066
:1042B00007B50023421E00930023042A19D8DFE823
:1042C00002F003080C1014000C490D48012203F001
:1042D0006BFB0C490C480222F9E70C490C480322FD
:1042E000F5E70C490C480422F1E70C490C4805227B
:1042F000EDE702460B490C48E9E700BF0027020042
:1043000025010280212702002601028046270200A3
:10431000270102807B27020028010280B6270200C5
:104320002A010280F627020000010280014A0146AC
:10433000FFF7A0BF31010180014AFFF79BBF00BF1B
:1043400032010180014AFFF795BF00BF37010180AC
:10435000014AFFF78FBF00BF3301018011F1110F38
:1043600002D0024AFFF786BF704700BF34010180C8
:10437000014AFFF77FBF00BF3801018010B5FFF78A
:1043800017FE034B1B6813B1BDE81040184710BD62
:104390002C220020024B1B6803B11847704700BF56
:1043A0002C220020024B987A003818BF0120704759
:1043B0002404002008B5FEF76BFA0749002203F039
:1043C00085FBC31C04D9054905488B2203F0CAF8B4
:1043D000BDE80840FEF770BAA5430100EF280200CF
:1043E00001290200B0F57A7F38B50D4604D018498E
:1043F0001848322203F0B6F802F0C4FD041E13DBA5
:1044000004F1604303F56143E02283F80023294669
:10441000204604F041FD204604F046FD85420AD0C6
:104420000B490D483F22E5E70C4B04F00F02134403
:10443000E0221A76EBE7002C08DB094B6209012029
:1044400004F01F0400FA04F443F82240002038BDB1
:10445000EF2802002E2902003B290200FCEC00E0BC
:1044600000E100E008B503F0B9FABDE8084002F049
:1044700088BE0000014B186802F0B8BE1824002066
:10448000014B186802F074BE1824002008B502F031
:1044900079FD08BD08B5024C23689847FCE700BFCA
:1044A000C804002003680BB108461847704710B5D0
:1044B0000446FDF7B7F9204610BD08B5FDF776FABA
:1044C00008BD0000044B0022C3E901221A611A60F2
:1044D000024ADA60704700BF30220020A544010084
:1044E0000346002210B503F8012B00F1110403F874
:1044F000012B9C42FBD1418210BD000008B542F661
:1045000002110248FFF7ECFF08BD00BF4422002063
:10451000034B1A78034B53F8223003B11847704706
:10452000CC04002058220020074B1B785BB1074BBE
:104530000122C3F80823064B5A78FF2A00D1FEE770
:10454000044A12885A70704740AC002000F00040C6
:1045500062AC0020A4AE0020F8B50546064655F82A
:10456000044B8CB90D4F386818B14FF0FF31FEF78E
:10457000E3FE346824B9284603F098FF2C463560E2
:10458000386808B1FEF7F0FEAC4204D00449054893
:104590008B2202F0E7FF2046F8BD00BFF82A00207A
:1045A0008C2902009B290200036801221B6900215B
:1045B0001847036800221B691146184707B5019088
:1045C00003F080F80198012104F0F4FF03B05DF8D6
:1045D00004EB03F08DB807B5019003F073F8019870
:1045E000002104F0E7FF03B05DF804EB03F080B8AE
:1045F00007B5CDE9001003F065F8DDE9001004F01F
:10460000B7FF03B05DF804EB03F072B810B50446D1
:10461000FBF78EFE204610BD10B500210446FCF7C6
:1046200081FD204610BD7047416830B4034671B12A
:10463000D0E9032000F0010402B944B1451001EBB8
:1046400060000CB149598A58996830BC104730BC99
:104650007047000070B500F14C0690F9DF2090F92A
:10466000DE100446304605F0C1FAD4E939530DB9DD
:10467000DA070ED55A1004EB6300DB0748BFA358D6
:1046800094F8EC1048BF5D5994F9ED2094F9EE30A0
:10469000A847D4F8D810304605F0B8FB224630467B
:1046A0000249BDE8704005F08FBC00BFE949010038
:1046B0002DE9F0411F46D0F8E03004460E4615467D
:1046C0002BB12849284840F2351202F04BFF274A07
:1046D000C0E9392303681B68984784F8EC6084F8C4
:1046E000ED5084F8EE70042E0CD8DFE806F01603C7
:1046F00011161A004FF0FF332A46012104F14C0035
:1047000005F03CFC236820465B68BDE8F041184793
:104710002B464FF0FF320221F0E73B462A46314656
:10472000ECE70120013584F804010AD003F00AFD0A
:104730000023054694F9ED10037001F0C7FFC4F89B
:10474000F05094F9EE300133DCD0012003F0FAFC94
:104750000022054694F9EE10027001F0BAFFC4F889
:10476000F450CFE7D7290200E6290200B146010044
:1047700010B50446FBF7DCFD2046FDF74DF820465A
:1047800010BD70B50646044656F84C3B0D461B68F6
:1047900098473046294605F039FB2368C4F8D850BD
:1047A00020465B68BDE8704018477FB50546044663
:1047B00055F84C6B0193CDE902213668B047DDE92D
:1047C00001322846039905F0A1FB23685B68204667
:1047D00004B0BDE87040184738B50546044655F8A2
:1047E0004C3B1B689847284605F09EFC94F8043122
:1047F0000546C3B1D4F8F430ABB193F900305A1C7C
:1048000004D112491248212202F0ACFE012280B9E3
:104810001F2B86BF0F4903F01F034FF0A04102FA80
:1048200003F3C1F80835236820465B68984728469B
:1048300038BD1F2B86BF074903F01F034FF0A0416F
:1048400002FA03F3C1F80C35EDE700BF2A2A020093
:104850004B2502000003005038B50546044655F8C4
:104860004C3B1B689847284605F07EFC94F80431C1
:10487000054643B1D4F8F00004F04CFE002814BF04
:10488000002505F00105236820465B689847284607
:1048900038BD4C3005F0D4BB10B54C300C4605F09B
:1048A0000DFC204610BD00002DE9F0419846294B33
:1048B0000360294B43600025284BC3600446C0E9D0
:1048C0000555C0E9075585608584006128300F468D
:1048D0001646FFF7A1FE04F13800FFF79DFE2946BA
:1048E0006C22A4F8485004F14C000AF0F9F804F1E5
:1048F000B800FCF742FE04F1C800FCF73EFE40F2AF
:104900000113A4F8DC304FF47F43A4F8EC30FF230C
:1049100084F8EE30A368C4F8E850C4E93855C4E917
:104920003E555A1013F0010FC4F8005104EB630018
:1049300018BFA2586368C4F8D88018BFD35884F849
:10494000DE7084F8DF6084F8045198472046BDE8A3
:10495000F08100BF402A02005546010029460100AF
:1049600003682DE9F04105461B6816460F46984737
:1049700095F8DC30340103B17EB195F8DD300BB130
:10498000012E0AD0B83439462819FCF7FAFF2B68F3
:1049900028465B68BDE8F041184702F093FE3846B0
:1049A000FCF7FCFFB8342C4405F14C0888B12046D4
:1049B000FCF7F4FF08B903F0B9F839462046FCF7D4
:1049C000E0FF01223146404605F00EFB02F090FE6A
:1049D000DDE72046FCF7E2FF08B103F0BDF8204612
:1049E000FFF7C6FE0022EDE700EB011110B501F163
:1049F000B8042046FCF7D2FF10B12046FFF75DFD5A
:104A000010BD036870B504461B680D46984794F8BE
:104A1000DC30AB422DD065B194F8DD304BB9A268E3
:104A20006368511004EB6200D20744BF6258D35848
:104A3000984702F047FE04F1B80605B33046FCF78C
:104A4000ADFF50B13046FCF7B1FF03F06FF8012223
:104A5000002104F14C0005F0C7FA02F049FE84F889
:104A6000DC5035B994F8DD301BB904F14C0005F089
:104A70009DF9236820465B68BDE87040184704F143
:104A80004C002A46294605F0AFFA3046FCF786FF6F
:104A90000028E2D003F060F8DFE7036870B5044651
:104AA0001B680D46984794F8DD30AB422DD065B1B8
:104AB00094F8DC304BB9A2686368511004EB6200D3
:104AC000D20744BF6258D358984702F0FBFD04F167
:104AD000C80605B33046FCF761FF50B13046FCF71D
:104AE00065FF03F023F80122114604F14C0005F0A4
:104AF0007BFA02F0FDFD84F8DD5035B994F8DC3026
:104B00001BB904F14C0005F051F9236820465B689D
:104B1000BDE87040184704F14C002A46012105F019
:104B200063FA3046FCF73AFF0028E2D003F014F8AD
:104B3000DFE700001FB51E4B0360044600216846F6
:104B4000FCF722FD002269462046FFF709FF684670
:104B5000FBF7F3FB00216846FCF716FD01226946CE
:104B60002046FFF7FDFE6846FBF7E7FB94F8DC30D4
:104B700013B994F8DD301BB104F14C0005F016F9BF
:104B800004F1C800FBF7D9FB04F1B800FBF7D5FB33
:104B900004F13800FFF73AFD04F12800FFF736FD75
:104BA000206A08B102F034F8204604B010BD00BFFE
:104BB000402A020010B50446FFF7BCFF20464FF420
:104BC000847103F0D5FA204610BD437D10B504462C
:104BD0001BB1037D0BB102F0BFFF204610BD13B522
:104BE000044601A802F01CF8637D53B9237D0BB184
:104BF00002F09CFF206901F0D4FFC4E90001012309
:104C0000637501A802F014F802B010BD37B5044670
:104C10000D4601A802F004F800230022C4E9002395
:104C20006B7D4BB1286901F0BCFFD5E90032C01A99
:104C300061EB0201C4E9000101A801F0F9FF20467F
:104C400003B030BD30B585B004460D4603A801F071
:104C5000E7FF29466846FFF7D9FFD5E90210009B18
:104C6000019A5B1840EB0202C4E9003203A801F08C
:104C7000DFFF204605B030BD13B5044601A801F0A2
:104C8000CFFF206901F08DFF00220023C4E900015D
:104C9000C4E9022301A801F0CBFF02B010BDD0B5DA
:104CA000002300260027C0E90067C0E90267044628
:104CB000016102754375FFF7DFFF2046D0BD10B5D7
:104CC000044601F091FF012201462046FFF7E7FF6D
:104CD000204610BD10B5044601F04EFD00220146ED
:104CE0002046FFF7DCFF204610BD03681B6818470D
:104CF00010B50446074B236000220023C4E90223B9
:104D000000230846A161C4E90433034901F0D8FE39
:104D1000204610BD582A0200EB4C010007B5009058
:104D200000F10801806901F009FF03B05DF804FBA0
:104D300000F10801806901F019BF002070476FF091
:104D40001C0070476FF01C0070476FF01500704733
:104D50006FF0150070470120704701207047002058
:104D600070470020704770B511F0010405468EB2FF
:104D700004D0FFF731FD041E18BF0124F30605D54A
:104D80002846FFF769FD08B144F01004204670BDC5
:104D9000A0F58470FFF7E7BF08B5FFF732FE0020EB
:104DA00008BDA0F58470FFF7F7BF08B5FFF775FEE3
:104DB000002008BDA0F58470FFF7F7BF10B5034BC6
:104DC00003600446FFF7B6FE204610BD642A0200C9
:104DD000A0F58470F2E700BF10B50446FFF7EEFFC0
:104DE00020464FF4867103F0C3F9204610BDA0F5AC
:104DF0008470F1E72DE9F04106460D461746CAB129
:104E000002F05DFC80F0010313F0FF0403D033686F
:104E100030461B68984705EB0708454505D015F84F
:104E2000011B3046FFF738FDF7E71CB13368304609
:104E30005B6898473846BDE8F081A0F58470FFF7BD
:104E4000D9BF38B504460D4662B103681B68984760
:104E50002046FFF71EFD2870236820465B689847B0
:104E6000012038BD1046FCE7A0F58470FFF7E9BFCC
:104E700010B50446FFF718FD044B03F10802443354
:104E80002260C4F80831204610BD00BF5C2A020031
:104E900030B5056885B00446CDE9022101932D683F
:104EA000A847DDE9013220460399FFF701FC23689A
:104EB0005B68204605B0BDE83040184710B5044691
:104EC000FBF736FA2046FCF7A7FC204610BD70B56C
:104ED00004460E4602F0F6FBA5695DB104F1080038
:104EE000FFF7ECFF012384F820300023E36184F80E
:104EF0002160A36102F0FCFB2DB121462846BDE8EC
:104F0000704000F078B970BD08B103F0D7BA02F074
:104F1000D9BB08B103F0F0BA02F0EABB2DE9F041C9
:104F2000044686B00E46174602F0CCFBA56902F097
:104F3000DFFB35B301AD0021284603F019FB02F079
:104F4000C1FBD4E9068323B10F491048392202F08E
:104F500009FBE56102F0CCFBB8F1000F0ED0394639
:104F6000284603F00DFB48B93046FFF7CDFF204639
:104F70000121FFF7ACFF3046FFF7CBFF284603F0D7
:104F800020FB06B0BDE8F081052B0200112B0200CA
:104F900038B504460025054B456040F8083BFCF752
:104FA000ECFAC4E906552584204638BD382B0200AA
:104FB000074B10B503608369044623B105490648D1
:104FC000262202F0CFFA0830FBF7B7F9204610BDD1
:104FD000382B0200052B02001F2B020030B50446BF
:104FE00085B004F1080502F06DFB29466846FFF71D
:104FF0005EFA2846FFF762FFE0690023A36108B16B
:1050000003F0DCFA02F074FB6846FCF7C7FC10B151
:105010006846FFF752FA6846FBF78FF905B030BDD6
:105020000022C0E90122012201600273704770472B
:105030000346007B30B1D3E90020136898428CBF4F
:105040000020012070470123D0F800C02DE9F04373
:1050500003FA01F11F4682EA030E1CF823500D42A9
:1050600004D005F030053AB1102D07D10133112BD2
:10507000F3D14FF0FF300FE0002DF7D05C00023C81
:10508000D0F8088042EA040607FA06F919EA080F80
:10509000ECD1202D02D03046BDE8F0834EEA040466
:1050A00007FA04F414EA080FF5D0DFE770B50D46EF
:1050B00011462A4604461E46FFF7C5FF002802DABD
:1050C0000020207370BD21686368420801EB8201F3
:1050D000CD8849791D4406FB01510123616003FA23
:1050E00000F1A36842EAC0100B43A360C0B2E9E735
:1050F00013460A460121FFF7D9BF13460A4600218D
:10510000FFF7D4BF13B50A46019100210446FFF70B
:10511000EFFF019A0021204602B0BDE81040FFF7E2
:10512000ECBF0022C0E9002270477047006870475A
:1051300000230B60436813B9016041607047196038
:10514000FBE703682BB11A6802B9426002600022D3
:105150001A601846704710B50468002223468B4237
:1051600003D083B11A461B68F9E70AB10B681360D4
:105170008C4204BF0B68036043688B424FF000030E
:1051800008BF42600B6010BD10B50446FFF7C9FFB1
:10519000204610BD08B5FFF7C9FFB0FA80F04009FE
:1051A00008BD70B505462846FFF7C0FF044678B134
:1051B00050F8043C061F9B683046984740B128468B
:1051C000FFF7BFFF54F8043C3046DB689847EAE736
:1051D00070BD70B504460D46FFF7A8FFAC610646EA
:1051E000291D2046FFF7A4FF26B92046BDE87040E0
:1051F000FFF7D7BF70BD70B505460C46FFF796FFA9
:10520000064604B1043421462846FFF7A4FFA6420F
:1052100004D12846BDE87040FFF7C3BF70BD10B58C
:1052200004462046FFF782FF28B150F8043C0438BA
:10523000DB689847F5E710BD10B50446FFF7EFFFB0
:105240002046FFF772FF204610BD70477047036885
:105250009B6D184770B586B00023CDF806308DF8E9
:105260000A300389ADF8103040F201234FF48974FD
:10527000ADF8123040F2031390F820134268ADF8F5
:105280000440ADF81430022400F10A038DF8074001
:105290008DF80B10039201AC05AE1D46224603CAE1
:1052A000B24218605960144603F10803F6D112881F
:1052B0001A80284606B070BD00487047202E0200B4
:1052C00000487047582E020000487047242E020004
:1052D000004870476A2E020000487047502E0200B6
:1052E000004870473A2E0200036810B504465B6F11
:1052F0009847D4F8EC0203681B6F98472368204650
:105300009B6FBDE81040184708B5D0F834332BB96F
:105310000349044840F2CD6202F024F908BD00BF01
:10532000652B0200732B020010B5044602F0CAF987
:10533000D4F834330133C4F834332BB90349044867
:105340004FF4D76202F00EF910BD00BF652B0200CA
:10535000732B020038B5D0F83433012B044610D13A
:105360000025D4E9C93000F0010203B94AB1411067
:10537000C4E9C95504EB60000AB16258D358984794
:10538000EFE7D4F834332BB90649074840F2C66238
:1053900002F0E8F8013BC4F83433BDE8384002F0CD
:1053A000A7B900BF652B0200732B020007B50023CD
:1053B0000249034800931A4602F0F6FA7F2B0200D6
:1053C0000E01158007B500230249034800931A46D1
:1053D00002F0EAFAA72B020004011580036873B5F6
:1053E0000446DB6F9847B4F8F8120B12022B25D055
:1053F000032B56D0012B04D1236820461B6B984702
:1054000008B9002018E0236820461B6B98470678EF
:10541000122EF6D1236820461B6B98474578012D44
:10542000EFD12368C4F804631B6B2046984784F8C7
:105430000853C4F80003284602B070BD2368C9B2FF
:105440005B6B0191204698470028DAD023680199C8
:105450005B6B2046984703780199092BD1D12368CB
:1054600020465B6B984743780199022BC9D123688A
:1054700020465B6B9847236885785B6B01992046D3
:105480009847C378019945EA03252368C4F8045373
:105490005B6B20469847C4F80003012084F808039A
:1054A000CAE7C9B20529ACD8DFE801F0030F192318
:1054B0002D37236820469B6B98470378C4F8043344
:1054C00023689B6B20469847E5E723682046DB6B03
:1054D00098470378C4F804332368DB6BF2E723684A
:1054E00020461B6C98470378C4F8043323681B6C70
:1054F000E8E7236820465B6C98470378C4F80433D8
:1055000023685B6CDEE7236820469B6C9847037832
:10551000C4F8043323689B6CD4E723682046DB6C13
:1055200098470378C4F804332368DB6CCAE70B7828
:10553000DB0913700B78C3F3411353700B7803F03E
:105540001F0393704B78D370C8788B7843EA00239D
:10555000938048790B7943EA0023D380C8798B790B
:1055600043EA002313817047036870B504465B6FFC
:105570000D46984794F80C33022B05D009490A4888
:1055800040F23D1201F0EEFF084BC4F82433002333
:10559000C4F82833236884F8105320469B6FBDE875
:1055A00070401847652B0200C62B02006F5A01009D
:1055B00038B503680446DB6F984794F8083313B195
:1055C0000025284638BDD4F8EC0203685B6C984788
:1055D000D4F804239042F3D8D4F80013121A0144EB
:1055E000C4F80013C4F80423A2B994F80A530223A0
:1055F00084F80C3345B1236884F80A239B6E04F5C4
:105600003D7120469847DCE701212046FFF7ACFFBB
:105610000125D6E7D4F8EC02D4F820430368A2426F
:105620001B6C28BF22469847F2E70000036813B5B9
:105630000446DB6F984794F81C33012B06D80023EF
:105640000F4900931A460F4802F0AEF994F80C3354
:1056500023B100230C4900931A46F4E794F80B3366
:10566000032B0BD02046FFF7A3FF38B9D4F8EC0288
:105670000368DB6C02B0BDE81040184702B010BDF3
:105680007F2B02000E011580F12B020038B5036854
:105690000446DB6F984794F80833012B3BD1D4F8CC
:1056A000045335B994F809330BB901252CE084F87B
:1056B0000953D4F82023D4F8EC02D4F8001303687B
:1056C000954228BF15462A469B6C9847D4F800336C
:1056D000D4F804232B44551BC4F80033C4F80453F6
:1056E000002DE2D194F80923002ADED194F80A5360
:1056F000022384F80C334DB1236884F80A239B6E8F
:1057000004F53D7120469847284638BD01212046C2
:10571000FFF72AFFC9E70025F6E7036810B504463E
:10572000DB6F984794F81C33012B01D8FFF73EFE3E
:1057300094F80B33032B0AD02046FFF7A7FF30B9AC
:10574000D4F8EC020368BDE81040DB6C184710BDCC
:10575000036870B504465B6F0D46984794F80C33A8
:10576000032B05D009490A484FF4C37201F0FAFE31
:10577000084BC4F824330023C4F82833236884F882
:10578000105320469B6FBDE870401847652B020000
:105790003B2C02008763010010B503680446DB6FF1
:1057A0009847012004F21D33C4F80033C4F8040301
:1057B00084F8080310BD036810B50446DB6F9847F2
:1057C00094F81C33042B01BFB4F82E33A4F8FA323A
:1057D000012004F54C7303BFC4F80033C4F804037C
:1057E00084F80803002010BD036810B5DB6F044681
:1057F0009847042384F80C33236894F8F8221B6F2D
:10580000B4F8FA1220469847012010BD036870B51D
:1058100004465B6F0D46984794F80C33042B05D073
:1058200009490A484FF4EB7201F09CFE084BC4F89A
:1058300024330023C4F82833236884F81053204607
:105840009B6FBDE870401847652B0200672C020073
:10585000FF5A0100036810B50446DB6F984794F8BF
:105860001C33042B02D0B4F8FA328BBB94F8F63216
:10587000012B0FD0022B10D053BB164B01221A80E4
:10588000144BC4F8003301200223C4F8043384F815
:10589000080310BD0F4B0022F1E7B4F8FA2222F002
:1058A0008F03ABB912F00F0F0A4902D100230B800E
:1058B000E6E7530003F01E0343EAD213023B18222B
:1058C00002FB034393F830309B07EFD50123EEE74B
:1058D0000020DEE76C22002010B50368044690B07B
:1058E000DB6F9847D4F8EC02D4F8202303686946AC
:1058F000DB6B984704F53D7269462046FFF717FEBB
:105900000023C4F80833C4E9C033012384F80C33FE
:10591000236811465B6E2046984710B010BD03689F
:1059200010B50446DB6F984794F81C33012B01D85F
:10593000FFF73CFD94F80C23012384F82C3322B9A3
:105940002046BDE81040FFF7C7BF84F82D3310BDD7
:105950002DE9F0411D46036804465B6F0F4616466D
:10596000984794F80C33012B05D00B490B4840F2B3
:10597000BA2201F0F7FD0A4BC4F824330023C4F81F
:105980002833236884F81073C4E9C56520469B6FEB
:10599000BDE8F041184700BF652B02008F2C0200C4
:1059A0003F620100036810B50446DB6F9847B4F806
:1059B000FC3293B394F8F40294F80823012825D11B
:1059C000012A06D0D4F8EC020368DB6CBDE8104075
:1059D0001847D4F804239A4201D9C4F804330128A3
:1059E000D4F8041326D18B4208D9D4F82033B1FB64
:1059F000F3F203FB12120AB984F80903022384F8B4
:105A00000B332046BDE81040FFF740BE002AD9D135
:105A1000D4F804239A42E2D0D4E7D4F8EC02D4F8C4
:105A200004230368002AD0D1032184F80B139B6C54
:105A300011460DE0D4F8EC02D4F82023012384F8B9
:105A40000B3303688A4228BF0A461B6CD4F8001344
:105A5000BDE81040184710B503680446DB6F98474F
:105A6000002384F82D33032384F80B3310BD03681F
:105A700010B5DB6F04469847002284F80C2394F895
:105A80002D2394F8103322B12046BDE81040FFF7D3
:105A9000E2BF33B9D4F8EC020368BDE81040DB6C18
:105AA000184794F80B33012B0AD1D4F8EC020323E6
:105AB00084F80B3303689B6CBDE81040114618470F
:105AC000022B07D1D4F8EC02032384F80B330368CC
:105AD0001B6CF1E710BD036810B5DB6F04469847F7
